{
  "_format": "hh-sol-artifact-1",
  "contractName": "Auctions",
  "sourceName": "contracts/Auctions.sol",
  "abi": [
    {
      "anonymous": false,
      "inputs": [
        {
          "indexed": false,
          "internalType": "uint256",
          "name": "auctionID",
          "type": "uint256"
        },
        {
          "indexed": false,
          "internalType": "address",
          "name": "winner",
          "type": "address"
        },
        {
          "indexed": false,
          "internalType": "uint256",
          "name": "amount",
          "type": "uint256"
        }
      ],
      "name": "AuctionClosed",
      "type": "event"
    },
    {
      "anonymous": false,
      "inputs": [
        {
          "indexed": false,
          "internalType": "uint256",
          "name": "auctionID",
          "type": "uint256"
        }
      ],
      "name": "NewAuction",
      "type": "event"
    },
    {
      "anonymous": false,
      "inputs": [
        {
          "indexed": false,
          "internalType": "uint256",
          "name": "auctionID",
          "type": "uint256"
        },
        {
          "indexed": false,
          "internalType": "address",
          "name": "bidder",
          "type": "address"
        },
        {
          "indexed": false,
          "internalType": "uint256",
          "name": "amount",
          "type": "uint256"
        }
      ],
      "name": "NewBid",
      "type": "event"
    },
    {
      "inputs": [
        {
          "internalType": "uint256",
          "name": "",
          "type": "uint256"
        }
      ],
      "name": "auctions",
      "outputs": [
        {
          "internalType": "uint256",
          "name": "auctionID",
          "type": "uint256"
        },
        {
          "internalType": "uint256",
          "name": "startTime",
          "type": "uint256"
        },
        {
          "internalType": "uint256",
          "name": "endTime",
          "type": "uint256"
        },
        {
          "internalType": "uint256",
          "name": "minimumBid",
          "type": "uint256"
        },
        {
          "internalType": "string",
          "name": "description",
          "type": "string"
        },
        {
          "internalType": "address",
          "name": "auctionOwner",
          "type": "address"
        },
        {
          "internalType": "enum Auctions.Status",
          "name": "status",
          "type": "uint8"
        },
        {
          "internalType": "address",
          "name": "winner",
          "type": "address"
        }
      ],
      "stateMutability": "view",
      "type": "function"
    },
    {
      "inputs": [
        {
          "internalType": "uint256",
          "name": "_auctionID",
          "type": "uint256"
        },
        {
          "internalType": "address payable",
          "name": "_winner",
          "type": "address"
        }
      ],
      "name": "closeAuction",
      "outputs": [],
      "stateMutability": "nonpayable",
      "type": "function"
    },
    {
      "inputs": [
        {
          "internalType": "uint256",
          "name": "_startTime",
          "type": "uint256"
        },
        {
          "internalType": "uint256",
          "name": "_endTime",
          "type": "uint256"
        },
        {
          "internalType": "uint256",
          "name": "_minimumBid",
          "type": "uint256"
        },
        {
          "internalType": "string",
          "name": "_description",
          "type": "string"
        }
      ],
      "name": "createAuction",
      "outputs": [],
      "stateMutability": "nonpayable",
      "type": "function"
    },
    {
      "inputs": [],
      "name": "getAuctions",
      "outputs": [
        {
          "components": [
            {
              "internalType": "uint256",
              "name": "auctionID",
              "type": "uint256"
            },
            {
              "internalType": "uint256",
              "name": "startTime",
              "type": "uint256"
            },
            {
              "internalType": "uint256",
              "name": "endTime",
              "type": "uint256"
            },
            {
              "internalType": "uint256",
              "name": "minimumBid",
              "type": "uint256"
            },
            {
              "internalType": "string",
              "name": "description",
              "type": "string"
            },
            {
              "components": [
                {
                  "internalType": "address",
                  "name": "bidder",
                  "type": "address"
                },
                {
                  "internalType": "uint256",
                  "name": "amount",
                  "type": "uint256"
                }
              ],
              "internalType": "struct Auctions.Bid[]",
              "name": "bids",
              "type": "tuple[]"
            },
            {
              "internalType": "address",
              "name": "auctionOwner",
              "type": "address"
            },
            {
              "internalType": "enum Auctions.Status",
              "name": "status",
              "type": "uint8"
            },
            {
              "internalType": "address",
              "name": "winner",
              "type": "address"
            }
          ],
          "internalType": "struct Auctions.Auction[]",
          "name": "",
          "type": "tuple[]"
        }
      ],
      "stateMutability": "view",
      "type": "function"
    },
    {
      "inputs": [
        {
          "internalType": "uint256",
          "name": "_aucID",
          "type": "uint256"
        }
      ],
      "name": "getMyBidDetails",
      "outputs": [
        {
          "internalType": "uint256",
          "name": "",
          "type": "uint256"
        },
        {
          "internalType": "address",
          "name": "",
          "type": "address"
        },
        {
          "internalType": "string",
          "name": "",
          "type": "string"
        },
        {
          "internalType": "enum Auctions.Status",
          "name": "",
          "type": "uint8"
        },
        {
          "internalType": "uint256",
          "name": "",
          "type": "uint256"
        }
      ],
      "stateMutability": "view",
      "type": "function"
    },
    {
      "inputs": [],
      "name": "getMyBidsList",
      "outputs": [
        {
          "internalType": "uint256[]",
          "name": "",
          "type": "uint256[]"
        }
      ],
      "stateMutability": "view",
      "type": "function"
    },
    {
      "inputs": [
        {
          "internalType": "uint256",
          "name": "_auctionID",
          "type": "uint256"
        },
        {
          "internalType": "uint256",
          "name": "bidPrice",
          "type": "uint256"
        }
      ],
      "name": "placeBid",
      "outputs": [],
      "stateMutability": "nonpayable",
      "type": "function"
    },
    {
      "inputs": [
        {
          "internalType": "address",
          "name": "",
          "type": "address"
        },
        {
          "internalType": "uint256",
          "name": "",
          "type": "uint256"
        }
      ],
      "name": "userBids",
      "outputs": [
        {
          "internalType": "uint256",
          "name": "",
          "type": "uint256"
        }
      ],
      "stateMutability": "view",
      "type": "function"
    },
    {
      "inputs": [
        {
          "internalType": "uint256",
          "name": "_auctionID",
          "type": "uint256"
        }
      ],
      "name": "viewAllBids",
      "outputs": [
        {
          "components": [
            {
              "internalType": "address",
              "name": "bidder",
              "type": "address"
            },
            {
              "internalType": "uint256",
              "name": "amount",
              "type": "uint256"
            }
          ],
          "internalType": "struct Auctions.Bid[]",
          "name": "",
          "type": "tuple[]"
        }
      ],
      "stateMutability": "view",
      "type": "function"
    }
  ],
  "bytecode": "0x608060405234801561001057600080fd5b50612349806100206000396000f3fe608060405234801561001057600080fd5b50600436106100935760003560e01c806396ec50c31161006657806396ec50c314610123578063a7bf7a4214610153578063d7c0691914610183578063efce66b2146101a1578063fd84893f146101bf57610093565b806315cda1af14610098578063571a26a0146100b457806357c90de5146100eb5780636bab66ae14610107575b600080fd5b6100b260048036038101906100ad9190611363565b6101f3565b005b6100ce60048036038101906100c991906113e6565b610405565b6040516100e2989796959493929190611559565b60405180910390f35b610105600480360381019061010091906115de565b610522565b005b610121600480360381019061011c919061165c565b61079f565b005b61013d600480360381019061013891906116c8565b61097b565b60405161014a9190611708565b60405180910390f35b61016d600480360381019061016891906113e6565b6109ac565b60405161017a919061181f565b60405180910390f35b61018b610a81565b6040516101989190611a97565b60405180910390f35b6101a9610eb9565b6040516101b69190611b68565b60405180910390f35b6101d960048036038101906101d491906113e6565b610f54565b6040516101ea959493929190611b8a565b60405180910390f35b838311610235576040517f08c379a000000000000000000000000000000000000000000000000000000000815260040161022c90611c56565b60405180910390fd5b61023f6000611125565b600061024b600061113b565b9050806001600083815260200190815260200160002060000181905550846001600083815260200190815260200160002060010181905550836001600083815260200190815260200160002060020181905550826001600083815260200190815260200160002060030181905550816001600083815260200190815260200160002060040190816102dc9190611e82565b50336001600083815260200190815260200160002060060160006101000a81548173ffffffffffffffffffffffffffffffffffffffff021916908373ffffffffffffffffffffffffffffffffffffffff16021790555060006001600083815260200190815260200160002060060160146101000a81548160ff0219169083600181111561036c5761036b6114e2565b5b021790555060006001600083815260200190815260200160002060070160006101000a81548173ffffffffffffffffffffffffffffffffffffffff021916908373ffffffffffffffffffffffffffffffffffffffff1602179055507fbdba0fc2c85fe021acfa560c047f0a846648b1b504aa94ab6557cabb04b94258816040516103f69190611708565b60405180910390a15050505050565b600160205280600052604060002060009150905080600001549080600101549080600201549080600301549080600401805461044090611ca5565b80601f016020809104026020016040519081016040528092919081815260200182805461046c90611ca5565b80156104b95780601f1061048e576101008083540402835291602001916104b9565b820191906000526020600020905b81548152906001019060200180831161049c57829003601f168201915b5050505050908060060160009054906101000a900473ffffffffffffffffffffffffffffffffffffffff16908060060160149054906101000a900460ff16908060070160009054906101000a900473ffffffffffffffffffffffffffffffffffffffff16905088565b600060016000848152602001908152602001600020905080600101544210158015610551575080600201544211155b610590576040517f08c379a000000000000000000000000000000000000000000000000000000000815260040161058790611fa0565b60405180910390fd5b80600301548210156105d7576040517f08c379a00000000000000000000000000000000000000000000000000000000081526004016105ce9061200c565b60405180910390fd5b6001808111156105ea576105e96114e2565b5b8160060160149054906101000a900460ff16600181111561060e5761060d6114e2565b5b0361064e576040517f08c379a000000000000000000000000000000000000000000000000000000000815260040161064590612078565b60405180910390fd5b8060050160405180604001604052803373ffffffffffffffffffffffffffffffffffffffff16815260200184815250908060018154018082558091505060019003906000526020600020906002020160009091909190915060008201518160000160006101000a81548173ffffffffffffffffffffffffffffffffffffffff021916908373ffffffffffffffffffffffffffffffffffffffff160217905550602082015181600101555050600260003373ffffffffffffffffffffffffffffffffffffffff1673ffffffffffffffffffffffffffffffffffffffff1681526020019081526020016000208390806001815401808255809150506001900390600052602060002001600090919091909150557f558a0d5d5468d74b0db24c74eb348b42271c2ebb4c9e953ced38aaed95fa436183338460405161079293929190612098565b60405180910390a1505050565b60006001600084815260200190815260200160002090508060060160009054906101000a900473ffffffffffffffffffffffffffffffffffffffff1673ffffffffffffffffffffffffffffffffffffffff163373ffffffffffffffffffffffffffffffffffffffff1614610848576040517f08c379a000000000000000000000000000000000000000000000000000000000815260040161083f90612141565b60405180910390fd5b806002015442101561088f576040517f08c379a0000000000000000000000000000000000000000000000000000000008152600401610886906121ad565b60405180910390fd5b6001808111156108a2576108a16114e2565b5b8160060160149054906101000a900460ff1660018111156108c6576108c56114e2565b5b03610906576040517f08c379a00000000000000000000000000000000000000000000000000000000081526004016108fd90612219565b60405180910390fd5b818160070160006101000a81548173ffffffffffffffffffffffffffffffffffffffff021916908373ffffffffffffffffffffffffffffffffffffffff16021790555060018160060160146101000a81548160ff02191690836001811115610971576109706114e2565b5b0217905550505050565b6002602052816000526040600020818154811061099757600080fd5b90600052602060002001600091509150505481565b606060016000838152602001908152602001600020600501805480602002602001604051908101604052809291908181526020016000905b82821015610a7657838290600052602060002090600202016040518060400160405290816000820160009054906101000a900473ffffffffffffffffffffffffffffffffffffffff1673ffffffffffffffffffffffffffffffffffffffff1673ffffffffffffffffffffffffffffffffffffffff168152602001600182015481525050815260200190600101906109e4565b505050509050919050565b60606000610a8f600061113b565b905060008060005b83811015610b1d5760006001811115610ab357610ab26114e2565b5b60016000600184610ac49190612268565b815260200190815260200160002060060160149054906101000a900460ff166001811115610af557610af46114e2565b5b03610b0a57600183610b079190612268565b92505b8080610b159061229c565b915050610a97565b5060008267ffffffffffffffff811115610b3a57610b39611238565b5b604051908082528060200260200182016040528015610b7357816020015b610b60611149565b815260200190600190039081610b585790505b50905060005b84811015610eae5760006001811115610b9557610b946114e2565b5b60016000600184610ba69190612268565b815260200190815260200160002060060160149054906101000a900460ff166001811115610bd757610bd66114e2565b5b03610e9b57600060016000600184610bef9190612268565b81526020019081526020016000209050806040518061012001604052908160008201548152602001600182015481526020016002820154815260200160038201548152602001600482018054610c4490611ca5565b80601f0160208091040260200160405190810160405280929190818152602001828054610c7090611ca5565b8015610cbd5780601f10610c9257610100808354040283529160200191610cbd565b820191906000526020600020905b815481529060010190602001808311610ca057829003601f168201915b5050505050815260200160058201805480602002602001604051908101604052809291908181526020016000905b82821015610d7d57838290600052602060002090600202016040518060400160405290816000820160009054906101000a900473ffffffffffffffffffffffffffffffffffffffff1673ffffffffffffffffffffffffffffffffffffffff1673ffffffffffffffffffffffffffffffffffffffff16815260200160018201548152505081526020019060010190610ceb565b5050505081526020016006820160009054906101000a900473ffffffffffffffffffffffffffffffffffffffff1673ffffffffffffffffffffffffffffffffffffffff1673ffffffffffffffffffffffffffffffffffffffff1681526020016006820160149054906101000a900460ff166001811115610e0057610dff6114e2565b5b6001811115610e1257610e116114e2565b5b81526020016007820160009054906101000a900473ffffffffffffffffffffffffffffffffffffffff1673ffffffffffffffffffffffffffffffffffffffff1673ffffffffffffffffffffffffffffffffffffffff1681525050838581518110610e7f57610e7e6122e4565b5b6020026020010181905250600184610e979190612268565b9350505b8080610ea69061229c565b915050610b79565b508094505050505090565b60606000600260003373ffffffffffffffffffffffffffffffffffffffff1673ffffffffffffffffffffffffffffffffffffffff168152602001908152602001600020905080805480602002602001604051908101604052809291908181526020018280548015610f4957602002820191906000526020600020905b815481526020019060010190808311610f35575b505050505091505090565b60008060606000806000600160008881526020019081526020016000209050600080600090505b8260050180549050811015611046573373ffffffffffffffffffffffffffffffffffffffff16836005018281548110610fb757610fb66122e4565b5b906000526020600020906002020160000160009054906101000a900473ffffffffffffffffffffffffffffffffffffffff1673ffffffffffffffffffffffffffffffffffffffff16036110335782600501818154811061101a576110196122e4565b5b9060005260206000209060020201600101549150611046565b808061103e9061229c565b915050610f7b565b50878260060160009054906101000a900473ffffffffffffffffffffffffffffffffffffffff16836004018460060160149054906101000a900460ff168482805461109090611ca5565b80601f01602080910402602001604051908101604052809291908181526020018280546110bc90611ca5565b80156111095780601f106110de57610100808354040283529160200191611109565b820191906000526020600020905b8154815290600101906020018083116110ec57829003601f168201915b5050505050925096509650965096509650505091939590929450565b6001816000016000828254019250508190555050565b600081600001549050919050565b604051806101200160405280600081526020016000815260200160008152602001600081526020016060815260200160608152602001600073ffffffffffffffffffffffffffffffffffffffff168152602001600060018111156111b0576111af6114e2565b5b8152602001600073ffffffffffffffffffffffffffffffffffffffff1681525090565b6000604051905090565b600080fd5b600080fd5b6000819050919050565b6111fa816111e7565b811461120557600080fd5b50565b600081359050611217816111f1565b92915050565b600080fd5b600080fd5b6000601f19601f8301169050919050565b7f4e487b7100000000000000000000000000000000000000000000000000000000600052604160045260246000fd5b61127082611227565b810181811067ffffffffffffffff8211171561128f5761128e611238565b5b80604052505050565b60006112a26111d3565b90506112ae8282611267565b919050565b600067ffffffffffffffff8211156112ce576112cd611238565b5b6112d782611227565b9050602081019050919050565b82818337600083830152505050565b6000611306611301846112b3565b611298565b90508281526020810184848401111561132257611321611222565b5b61132d8482856112e4565b509392505050565b600082601f83011261134a5761134961121d565b5b813561135a8482602086016112f3565b91505092915050565b6000806000806080858703121561137d5761137c6111dd565b5b600061138b87828801611208565b945050602061139c87828801611208565b93505060406113ad87828801611208565b925050606085013567ffffffffffffffff8111156113ce576113cd6111e2565b5b6113da87828801611335565b91505092959194509250565b6000602082840312156113fc576113fb6111dd565b5b600061140a84828501611208565b91505092915050565b61141c816111e7565b82525050565b600081519050919050565b600082825260208201905092915050565b60005b8381101561145c578082015181840152602081019050611441565b60008484015250505050565b600061147382611422565b61147d818561142d565b935061148d81856020860161143e565b61149681611227565b840191505092915050565b600073ffffffffffffffffffffffffffffffffffffffff82169050919050565b60006114cc826114a1565b9050919050565b6114dc816114c1565b82525050565b7f4e487b7100000000000000000000000000000000000000000000000000000000600052602160045260246000fd5b60028110611522576115216114e2565b5b50565b600081905061153382611511565b919050565b600061154382611525565b9050919050565b61155381611538565b82525050565b60006101008201905061156f600083018b611413565b61157c602083018a611413565b6115896040830189611413565b6115966060830188611413565b81810360808301526115a88187611468565b90506115b760a08301866114d3565b6115c460c083018561154a565b6115d160e08301846114d3565b9998505050505050505050565b600080604083850312156115f5576115f46111dd565b5b600061160385828601611208565b925050602061161485828601611208565b9150509250929050565b6000611629826114a1565b9050919050565b6116398161161e565b811461164457600080fd5b50565b60008135905061165681611630565b92915050565b60008060408385031215611673576116726111dd565b5b600061168185828601611208565b925050602061169285828601611647565b9150509250929050565b6116a5816114c1565b81146116b057600080fd5b50565b6000813590506116c28161169c565b92915050565b600080604083850312156116df576116de6111dd565b5b60006116ed858286016116b3565b92505060206116fe85828601611208565b9150509250929050565b600060208201905061171d6000830184611413565b92915050565b600081519050919050565b600082825260208201905092915050565b6000819050602082019050919050565b611758816114c1565b82525050565b611767816111e7565b82525050565b604082016000820151611783600085018261174f565b506020820151611796602085018261175e565b50505050565b60006117a8838361176d565b60408301905092915050565b6000602082019050919050565b60006117cc82611723565b6117d6818561172e565b93506117e18361173f565b8060005b838110156118125781516117f9888261179c565b9750611804836117b4565b9250506001810190506117e5565b5085935050505092915050565b6000602082019050818103600083015261183981846117c1565b905092915050565b600081519050919050565b600082825260208201905092915050565b6000819050602082019050919050565b600082825260208201905092915050565b600061188982611422565b611893818561186d565b93506118a381856020860161143e565b6118ac81611227565b840191505092915050565b600082825260208201905092915050565b60006118d382611723565b6118dd81856118b7565b93506118e88361173f565b8060005b83811015611919578151611900888261179c565b975061190b836117b4565b9250506001810190506118ec565b5085935050505092915050565b61192f81611538565b82525050565b60006101208301600083015161194e600086018261175e565b506020830151611961602086018261175e565b506040830151611974604086018261175e565b506060830151611987606086018261175e565b506080830151848203608086015261199f828261187e565b91505060a083015184820360a08601526119b982826118c8565b91505060c08301516119ce60c086018261174f565b5060e08301516119e160e0860182611926565b506101008301516119f661010086018261174f565b508091505092915050565b6000611a0d8383611935565b905092915050565b6000602082019050919050565b6000611a2d82611841565b611a37818561184c565b935083602082028501611a498561185d565b8060005b85811015611a855784840389528151611a668582611a01565b9450611a7183611a15565b925060208a01995050600181019050611a4d565b50829750879550505050505092915050565b60006020820190508181036000830152611ab18184611a22565b905092915050565b600081519050919050565b600082825260208201905092915050565b6000819050602082019050919050565b6000611af1838361175e565b60208301905092915050565b6000602082019050919050565b6000611b1582611ab9565b611b1f8185611ac4565b9350611b2a83611ad5565b8060005b83811015611b5b578151611b428882611ae5565b9750611b4d83611afd565b925050600181019050611b2e565b5085935050505092915050565b60006020820190508181036000830152611b828184611b0a565b905092915050565b600060a082019050611b9f6000830188611413565b611bac60208301876114d3565b8181036040830152611bbe8186611468565b9050611bcd606083018561154a565b611bda6080830184611413565b9695505050505050565b7f456e642074696d65206d7573742062652061667465722073746172742074696d60008201527f6500000000000000000000000000000000000000000000000000000000000000602082015250565b6000611c4060218361142d565b9150611c4b82611be4565b604082019050919050565b60006020820190508181036000830152611c6f81611c33565b9050919050565b7f4e487b7100000000000000000000000000000000000000000000000000000000600052602260045260246000fd5b60006002820490506001821680611cbd57607f821691505b602082108103611cd057611ccf611c76565b5b50919050565b60008190508160005260206000209050919050565b60006020601f8301049050919050565b600082821b905092915050565b600060088302611d387fffffffffffffffffffffffffffffffffffffffffffffffffffffffffffffffff82611cfb565b611d428683611cfb565b95508019841693508086168417925050509392505050565b6000819050919050565b6000611d7f611d7a611d75846111e7565b611d5a565b6111e7565b9050919050565b6000819050919050565b611d9983611d64565b611dad611da582611d86565b848454611d08565b825550505050565b600090565b611dc2611db5565b611dcd818484611d90565b505050565b5b81811015611df157611de6600082611dba565b600181019050611dd3565b5050565b601f821115611e3657611e0781611cd6565b611e1084611ceb565b81016020851015611e1f578190505b611e33611e2b85611ceb565b830182611dd2565b50505b505050565b600082821c905092915050565b6000611e5960001984600802611e3b565b1980831691505092915050565b6000611e728383611e48565b9150826002028217905092915050565b611e8b82611422565b67ffffffffffffffff811115611ea457611ea3611238565b5b611eae8254611ca5565b611eb9828285611df5565b600060209050601f831160018114611eec5760008415611eda578287015190505b611ee48582611e66565b865550611f4c565b601f198416611efa86611cd6565b60005b82811015611f2257848901518255600182019150602085019450602081019050611efd565b86831015611f3f5784890151611f3b601f891682611e48565b8355505b6001600288020188555050505b505050505050565b7f41756374696f6e206973206e6f74206163746976650000000000000000000000600082015250565b6000611f8a60158361142d565b9150611f9582611f54565b602082019050919050565b60006020820190508181036000830152611fb981611f7d565b9050919050565b7f42696420616d6f756e7420697320746f6f206c6f770000000000000000000000600082015250565b6000611ff660158361142d565b915061200182611fc0565b602082019050919050565b6000602082019050818103600083015261202581611fe9565b9050919050565b7f41756374696f6e20697320636c6f736564000000000000000000000000000000600082015250565b600061206260118361142d565b915061206d8261202c565b602082019050919050565b6000602082019050818103600083015261209181612055565b9050919050565b60006060820190506120ad6000830186611413565b6120ba60208301856114d3565b6120c76040830184611413565b949350505050565b7f4f6e6c79207468652061756374696f6e206f776e65722063616e20636c6f736560008201527f207468652061756374696f6e0000000000000000000000000000000000000000602082015250565b600061212b602c8361142d565b9150612136826120cf565b604082019050919050565b6000602082019050818103600083015261215a8161211e565b9050919050565b7f41756374696f6e20686173206e6f7420656e6465642079657400000000000000600082015250565b600061219760198361142d565b91506121a282612161565b602082019050919050565b600060208201905081810360008301526121c68161218a565b9050919050565b7f41756374696f6e20697320616c726561647920636c6f73656400000000000000600082015250565b600061220360198361142d565b915061220e826121cd565b602082019050919050565b60006020820190508181036000830152612232816121f6565b9050919050565b7f4e487b7100000000000000000000000000000000000000000000000000000000600052601160045260246000fd5b6000612273826111e7565b915061227e836111e7565b925082820190508082111561229657612295612239565b5b92915050565b60006122a7826111e7565b91507fffffffffffffffffffffffffffffffffffffffffffffffffffffffffffffffff82036122d9576122d8612239565b5b600182019050919050565b7f4e487b7100000000000000000000000000000000000000000000000000000000600052603260045260246000fdfea2646970667358221220d8e75bb7c7a5ebaa9742608cdc30c08881402fffd19fde9d0699fde0131966a064736f6c63430008110033",
  "linkReferences": {},
  "deployedLinkReferences": {}
}